{
  "contractName": "MyTokenSale",
  "abi": [
    {
      "inputs": [
        {
          "internalType": "uint256",
          "name": "rate",
          "type": "uint256"
        },
        {
          "internalType": "address payable",
          "name": "wallet",
          "type": "address"
        },
        {
          "internalType": "contract IERC20",
          "name": "token",
          "type": "address"
        },
        {
          "internalType": "contract KycContract",
          "name": "_kyc",
          "type": "address"
        },
        {
          "internalType": "uint256",
          "name": "_openingTime",
          "type": "uint256"
        },
        {
          "internalType": "uint256",
          "name": "_closingTime",
          "type": "uint256"
        }
      ],
      "stateMutability": "nonpayable",
      "type": "constructor"
    },
    {
      "anonymous": false,
      "inputs": [
        {
          "indexed": true,
          "internalType": "address",
          "name": "purchaser",
          "type": "address"
        },
        {
          "indexed": true,
          "internalType": "address",
          "name": "beneficiary",
          "type": "address"
        },
        {
          "indexed": false,
          "internalType": "uint256",
          "name": "value",
          "type": "uint256"
        },
        {
          "indexed": false,
          "internalType": "uint256",
          "name": "amount",
          "type": "uint256"
        }
      ],
      "name": "TokensPurchased",
      "type": "event"
    },
    {
      "inputs": [],
      "name": "_msgData",
      "outputs": [
        {
          "internalType": "bytes",
          "name": "",
          "type": "bytes"
        }
      ],
      "stateMutability": "view",
      "type": "function"
    },
    {
      "inputs": [],
      "name": "_msgSender",
      "outputs": [
        {
          "internalType": "address payable",
          "name": "",
          "type": "address"
        }
      ],
      "stateMutability": "view",
      "type": "function"
    },
    {
      "inputs": [
        {
          "internalType": "address",
          "name": "beneficiary",
          "type": "address"
        }
      ],
      "name": "buyTokens",
      "outputs": [],
      "stateMutability": "payable",
      "type": "function"
    },
    {
      "inputs": [],
      "name": "rateShow",
      "outputs": [
        {
          "internalType": "uint256",
          "name": "",
          "type": "uint256"
        }
      ],
      "stateMutability": "view",
      "type": "function"
    },
    {
      "inputs": [],
      "name": "tokenShow",
      "outputs": [
        {
          "internalType": "contract IERC20",
          "name": "",
          "type": "address"
        }
      ],
      "stateMutability": "view",
      "type": "function"
    },
    {
      "inputs": [],
      "name": "walletShow",
      "outputs": [
        {
          "internalType": "address payable",
          "name": "",
          "type": "address"
        }
      ],
      "stateMutability": "view",
      "type": "function"
    },
    {
      "inputs": [],
      "name": "weiRaised",
      "outputs": [
        {
          "internalType": "uint256",
          "name": "",
          "type": "uint256"
        }
      ],
      "stateMutability": "view",
      "type": "function"
    },
    {
      "stateMutability": "payable",
      "type": "receive"
    }
  ],
  "bytecode": "0x60806040523480156200001157600080fd5b50604051620018ab380380620018ab8339818101604052810190620000379190620002c3565b85858560016000806101000a81548160ff021916908315150217905550600083116200009a576040517f08c379a000000000000000000000000000000000000000000000000000000000815260040162000091906200048d565b60405180910390fd5b600073ffffffffffffffffffffffffffffffffffffffff168273ffffffffffffffffffffffffffffffffffffffff1614156200010d576040517f08c379a00000000000000000000000000000000000000000000000000000000081526004016200010490620004af565b60405180910390fd5b600073ffffffffffffffffffffffffffffffffffffffff168173ffffffffffffffffffffffffffffffffffffffff16141562000180576040517f08c379a000000000000000000000000000000000000000000000000000000000815260040162000177906200046b565b60405180910390fd5b8260028190555081600160006101000a81548173ffffffffffffffffffffffffffffffffffffffff021916908373ffffffffffffffffffffffffffffffffffffffff16021790555080600060016101000a81548173ffffffffffffffffffffffffffffffffffffffff021916908373ffffffffffffffffffffffffffffffffffffffff16021790555050505082600460006101000a81548173ffffffffffffffffffffffffffffffffffffffff021916908373ffffffffffffffffffffffffffffffffffffffff1602179055508160058190555080600681905550505050505050620005c4565b60008151905062000278816200055c565b92915050565b6000815190506200028f8162000576565b92915050565b600081519050620002a68162000590565b92915050565b600081519050620002bd81620005aa565b92915050565b60008060008060008060c08789031215620002dd57600080fd5b6000620002ed89828a01620002ac565b96505060206200030089828a0162000267565b95505060406200031389828a016200027e565b94505060606200032689828a0162000295565b93505060806200033989828a01620002ac565b92505060a06200034c89828a01620002ac565b9150509295509295509295565b600062000368602483620004d1565b91507f43726f776473616c653a20746f6b656e20697320746865207a65726f2061646460008301527f72657373000000000000000000000000000000000000000000000000000000006020830152604082019050919050565b6000620003d0601483620004d1565b91507f43726f776473616c653a207261746520697320300000000000000000000000006000830152602082019050919050565b600062000412602583620004d1565b91507f43726f776473616c653a2077616c6c657420697320746865207a65726f20616460008301527f64726573730000000000000000000000000000000000000000000000000000006020830152604082019050919050565b60006020820190508181036000830152620004868162000359565b9050919050565b60006020820190508181036000830152620004a881620003c1565b9050919050565b60006020820190508181036000830152620004ca8162000403565b9050919050565b600082825260208201905092915050565b6000620004ef8262000532565b9050919050565b6000620005038262000532565b9050919050565b60006200051782620004e2565b9050919050565b60006200052b82620004e2565b9050919050565b600073ffffffffffffffffffffffffffffffffffffffff82169050919050565b6000819050919050565b6200056781620004f6565b81146200057357600080fd5b50565b62000581816200050a565b81146200058d57600080fd5b50565b6200059b816200051e565b8114620005a757600080fd5b50565b620005b58162000552565b8114620005c157600080fd5b50565b6112d780620005d46000396000f3fe6080604052600436106100745760003560e01c80638b49d47e1161004e5780638b49d47e14610111578063b26214c01461013c578063ec8ac4d814610167578063f8c365ea146101835761008b565b80630792edd514610090578063119df25f146100bb5780634042b66f146100e65761008b565b3661008b576100896100846101ae565b6101b6565b005b600080fd5b34801561009c57600080fd5b506100a5610307565b6040516100b29190610e35565b60405180910390f35b3480156100c757600080fd5b506100d06101ae565b6040516100dd9190610e35565b60405180910390f35b3480156100f257600080fd5b506100fb610331565b6040516101089190610ff6565b60405180910390f35b34801561011d57600080fd5b5061012661033b565b6040516101339190610e79565b60405180910390f35b34801561014857600080fd5b50610151610388565b60405161015e9190610e9b565b60405180910390f35b610181600480360381019061017c91906109f3565b6101b6565b005b34801561018f57600080fd5b506101986103b1565b6040516101a59190610ff6565b60405180910390f35b600033905090565b60008054906101000a900460ff16610203576040517f08c379a00000000000000000000000000000000000000000000000000000000081526004016101fa90610f96565b60405180910390fd5b60008060006101000a81548160ff021916908315150217905550600034905061022c82826103bb565b600061023782610506565b905061024e8260035461052490919063ffffffff16565b60038190555061025e8382610582565b8273ffffffffffffffffffffffffffffffffffffffff1661027d6101ae565b73ffffffffffffffffffffffffffffffffffffffff167f6faf93231a456e552dbc9961f58d9713ee4f2e69d15f1975b050ef0911053a7b84846040516102c4929190611011565b60405180910390a36102d68383610590565b6102de610594565b6102e883836105ff565b505060016000806101000a81548160ff02191690831515021790555050565b6000600160009054906101000a900473ffffffffffffffffffffffffffffffffffffffff16905090565b6000600354905090565b60606000368080601f016020809104026020016040519081016040528093929190818152602001838380828437600081840152601f19601f82011690508083019250505050505050905090565b60008060019054906101000a900473ffffffffffffffffffffffffffffffffffffffff16905090565b6000600254905090565b60055442101580156103cf57506006544211155b61040e576040517f08c379a000000000000000000000000000000000000000000000000000000000815260040161040590610f56565b60405180910390fd5b6104188282610603565b600460009054906101000a900473ffffffffffffffffffffffffffffffffffffffff1673ffffffffffffffffffffffffffffffffffffffff16632eb10fde336040518263ffffffff1660e01b81526004016104739190610e1a565b60206040518083038186803b15801561048b57600080fd5b505afa15801561049f573d6000803e3d6000fd5b505050506040513d601f19601f820116820180604052508101906104c39190610a1c565b610502576040517f08c379a00000000000000000000000000000000000000000000000000000000081526004016104f990610ed6565b60405180910390fd5b5050565b600061051d600254836106bb90919063ffffffff16565b9050919050565b60008082846105339190611072565b905083811015610578576040517f08c379a000000000000000000000000000000000000000000000000000000000815260040161056f90610eb6565b60405180910390fd5b8091505092915050565b61058c8282610736565b5050565b5050565b600160009054906101000a900473ffffffffffffffffffffffffffffffffffffffff1673ffffffffffffffffffffffffffffffffffffffff166108fc349081150290604051600060405180830381858888f193505050501580156105fc573d6000803e3d6000fd5b50565b5050565b600073ffffffffffffffffffffffffffffffffffffffff168273ffffffffffffffffffffffffffffffffffffffff161415610673576040517f08c379a000000000000000000000000000000000000000000000000000000000815260040161066a90610f36565b60405180910390fd5b60008114156106b7576040517f08c379a00000000000000000000000000000000000000000000000000000000081526004016106ae90610fb6565b60405180910390fd5b5050565b6000808314156106ce5760009050610730565b600082846106dc91906110f9565b90508284826106eb91906110c8565b1461072b576040517f08c379a000000000000000000000000000000000000000000000000000000000815260040161072290610f16565b60405180910390fd5b809150505b92915050565b6107838282600060019054906101000a900473ffffffffffffffffffffffffffffffffffffffff1673ffffffffffffffffffffffffffffffffffffffff166107879092919063ffffffff16565b5050565b6108088363a9059cbb60e01b84846040516024016107a6929190610e50565b604051602081830303815290604052907bffffffffffffffffffffffffffffffffffffffffffffffffffffffff19166020820180517bffffffffffffffffffffffffffffffffffffffffffffffffffffffff838183161783525050505061080d565b505050565b61082c8273ffffffffffffffffffffffffffffffffffffffff1661097e565b61086b576040517f08c379a000000000000000000000000000000000000000000000000000000000815260040161086290610fd6565b60405180910390fd5b6000808373ffffffffffffffffffffffffffffffffffffffff16836040516108939190610e03565b6000604051808303816000865af19150503d80600081146108d0576040519150601f19603f3d011682016040523d82523d6000602084013e6108d5565b606091505b50915091508161091a576040517f08c379a000000000000000000000000000000000000000000000000000000000815260040161091190610ef6565b60405180910390fd5b60008151111561097857808060200190518101906109389190610a1c565b610977576040517f08c379a000000000000000000000000000000000000000000000000000000000815260040161096e90610f76565b60405180910390fd5b5b50505050565b60008060007fc5d2460186f7233c927e7db2dcc703c0e500b653ca82273b7bfad8045d85a47060001b9050833f91508082141580156109c057506000801b8214155b92505050919050565b6000813590506109d881611273565b92915050565b6000815190506109ed8161128a565b92915050565b600060208284031215610a0557600080fd5b6000610a13848285016109c9565b91505092915050565b600060208284031215610a2e57600080fd5b6000610a3c848285016109de565b91505092915050565b610a4e81611165565b82525050565b610a5d81611153565b82525050565b6000610a6e8261103a565b610a788185611045565b9350610a888185602086016111d1565b610a9181611262565b840191505092915050565b6000610aa78261103a565b610ab18185611056565b9350610ac18185602086016111d1565b80840191505092915050565b610ad6816111ad565b82525050565b6000610ae9601b83611061565b91507f536166654d6174683a206164646974696f6e206f766572666c6f7700000000006000830152602082019050919050565b6000610b29602683611061565b91507f4b7963206e6f7420636f6d6c657465642c207075726368617365206e6f74206160008301527f6c6c6f77656400000000000000000000000000000000000000000000000000006020830152604082019050919050565b6000610b8f602083611061565b91507f5361666545524332303a206c6f772d6c6576656c2063616c6c206661696c65646000830152602082019050919050565b6000610bcf602183611061565b91507f536166654d6174683a206d756c7469706c69636174696f6e206f766572666c6f60008301527f77000000000000000000000000000000000000000000000000000000000000006020830152604082019050919050565b6000610c35602a83611061565b91507f43726f776473616c653a2062656e656669636961727920697320746865207a6560008301527f726f2061646472657373000000000000000000000000000000000000000000006020830152604082019050919050565b6000610c9b601c83611061565b91507f506c6561736520627579206f6e207370656369666965642074696d65000000006000830152602082019050919050565b6000610cdb602a83611061565b91507f5361666545524332303a204552433230206f7065726174696f6e20646964206e60008301527f6f742073756363656564000000000000000000000000000000000000000000006020830152604082019050919050565b6000610d41601f83611061565b91507f5265656e7472616e637947756172643a207265656e7472616e742063616c6c006000830152602082019050919050565b6000610d81601983611061565b91507f43726f776473616c653a20776569416d6f756e742069732030000000000000006000830152602082019050919050565b6000610dc1601f83611061565b91507f5361666545524332303a2063616c6c20746f206e6f6e2d636f6e7472616374006000830152602082019050919050565b610dfd816111a3565b82525050565b6000610e0f8284610a9c565b915081905092915050565b6000602082019050610e2f6000830184610a54565b92915050565b6000602082019050610e4a6000830184610a45565b92915050565b6000604082019050610e656000830185610a54565b610e726020830184610df4565b9392505050565b60006020820190508181036000830152610e938184610a63565b905092915050565b6000602082019050610eb06000830184610acd565b92915050565b60006020820190508181036000830152610ecf81610adc565b9050919050565b60006020820190508181036000830152610eef81610b1c565b9050919050565b60006020820190508181036000830152610f0f81610b82565b9050919050565b60006020820190508181036000830152610f2f81610bc2565b9050919050565b60006020820190508181036000830152610f4f81610c28565b9050919050565b60006020820190508181036000830152610f6f81610c8e565b9050919050565b60006020820190508181036000830152610f8f81610cce565b9050919050565b60006020820190508181036000830152610faf81610d34565b9050919050565b60006020820190508181036000830152610fcf81610d74565b9050919050565b60006020820190508181036000830152610fef81610db4565b9050919050565b600060208201905061100b6000830184610df4565b92915050565b60006040820190506110266000830185610df4565b6110336020830184610df4565b9392505050565b600081519050919050565b600082825260208201905092915050565b600081905092915050565b600082825260208201905092915050565b600061107d826111a3565b9150611088836111a3565b9250827fffffffffffffffffffffffffffffffffffffffffffffffffffffffffffffffff038211156110bd576110bc611204565b5b828201905092915050565b60006110d3826111a3565b91506110de836111a3565b9250826110ee576110ed611233565b5b828204905092915050565b6000611104826111a3565b915061110f836111a3565b9250817fffffffffffffffffffffffffffffffffffffffffffffffffffffffffffffffff048311821515161561114857611147611204565b5b828202905092915050565b600061115e82611183565b9050919050565b600061117082611183565b9050919050565b60008115159050919050565b600073ffffffffffffffffffffffffffffffffffffffff82169050919050565b6000819050919050565b60006111b8826111bf565b9050919050565b60006111ca82611183565b9050919050565b60005b838110156111ef5780820151818401526020810190506111d4565b838111156111fe576000848401525b50505050565b7f4e487b7100000000000000000000000000000000000000000000000000000000600052601160045260246000fd5b7f4e487b7100000000000000000000000000000000000000000000000000000000600052601260045260246000fd5b6000601f19601f8301169050919050565b61127c81611153565b811461128757600080fd5b50565b61129381611177565b811461129e57600080fd5b5056fea2646970667358221220de8b565a30f0cb2cb4952529fcca87e1eaa9342726ebc9fb25ee6417c916f9b664736f6c63430008000033",
  "immutableReferences": {},
  "source": "// SPDX-License-Identifier: MIT\npragma solidity ^0.8.0;\n\nimport \"./Crowdsale.sol\";\nimport \"./KycContract.sol\";\n\n//import \"@openzeppelin/contracts/token/ERC20/ERC20.sol\";\n\n//import \"./ERC20Mintable.sol\";\n\n//weblink: https://docs.openzeppelin.com/contracts/2.x/crowdsales\n/*\n   Note : This contract owns the tokens , so once we sent ethers to the wallet\n   it'll send us tokens as per the rate from it's own address\n*/\n\ncontract MyTokenSale is Crowdsale {\n    //adding a KYC Pre-validation here\n\n    KycContract kyc; //KycContract kyc is the contract-wide declaration of the kyc variable\n\n    uint256 openingTime;\n    uint256 closingTime;\n    address owner;\n\n    modifier onlyWhileOpen {\n        require(\n            block.timestamp >= openingTime && block.timestamp <= closingTime,\n            \"Please buy on specified time\"\n        );\n        _;\n    }\n\n    constructor(\n        uint256 rate, // tells us for how many wei we can purchase a token\n        address payable wallet, //this receives amount of ethers sent to crowdsale\n        IERC20 token, //transfer tokens who's sending ethers to crowdsale contract\n        KycContract _kyc,\n        uint256 _openingTime,\n        uint256 _closingTime\n    ) Crowdsale(rate, wallet, token) {\n        kyc = _kyc; //contarct instance once it is deployed\n\n        openingTime = _openingTime;\n        closingTime = _closingTime;\n    }\n\n    //overriding existing func. from Cowrdsale.sol\n\n    /*\n\t\n\t\n\t-when you call the crowdsale contract then the _preValidatePurchase function is called. \n\t-This function is initially empty, but when you override the crowdsale contract provided by openzeppelin, \n\tthen you can write your own _preValidatePurchase function which will be called then.\n\t\n\t\n\t*/\n\n    function _preValidatePurchase(address beneficiary, uint256 weiAmount)\n        internal\n        view\n        override\n        onlyWhileOpen\n    {\n        super._preValidatePurchase(beneficiary, weiAmount); //calling func. of base class\n\n        require(\n            kyc.KycCompleted(msg.sender),\n            \"Kyc not comleted, purchase not allowed\"\n        );\n    }\n\n    // function mintOwner() public {\n\n    //     owner = msg.sender;\n    // }\n\n    // modifier onlyOwner {\n    //     require(msg.sender == owner);\n    //     _;\n    // }\n\n    // function mint(address account, uint256 amount)\n    //     public\n    //     onlyOwner\n    //     returns (bool)\n    // {\n    //     return true;\n    // }\n}\n\n// function _deliverTokens(address beneficiary, uint256 tokenAmount) internal {\n//     // Potentially dangerous assumption about the type of the token.\n//     require(\n//         ERC20Mintable(address(token())).mint(beneficiary, tokenAmount),\n//         \"MintedCrowdsale: minting failed\"\n//     );\n// }\n\n// function releaseTime() public view virtual override returns (uint256) {\n//     return _releaseTime;\n// }\n",
  "sourcePath": "D:/ICO/contracts/MyTokenSale.sol",
  "compiler": {
    "name": "solc",
    "version": "0.8.0+commit.c7dfd78e.Emscripten.clang"
  },
  "schemaVersion": "3.3.4",
  "updatedAt": "2021-04-26T04:52:38.193Z",
  "devdoc": {
    "kind": "dev",
    "methods": {
      "buyTokens(address)": {
        "details": "low level token purchase ***DO NOT OVERRIDE*** This function has a non-reentrancy guard, so it shouldn't be called by another `nonReentrant` function.",
        "params": {
          "beneficiary": "Recipient of the token purchase"
        }
      },
      "rateShow()": {
        "returns": {
          "_0": "the number of token units a buyer gets per wei."
        }
      },
      "tokenShow()": {
        "returns": {
          "_0": "the token being sold."
        }
      },
      "walletShow()": {
        "returns": {
          "_0": "the address where funds are collected."
        }
      },
      "weiRaised()": {
        "returns": {
          "_0": "the amount of wei raised."
        }
      }
    },
    "version": 1
  },
  "userdoc": {
    "events": {
      "TokensPurchased(address,address,uint256,uint256)": {
        "notice": "Event for token purchase logging"
      }
    },
    "kind": "user",
    "methods": {},
    "version": 1
  }
}